:020000040800F2
:10000000FC7F0120550000088300000883000008E1
:1000100083000008830000088300000883000008B4
:1000200083000008830000088300000883000008A4
:100030008300000883000008830000088300000894
:100040008300000883000008830000088300000884
:10005000830000080B490D6845F080050D600A4AD1
:10006000156825F07F4545F088551560074A1568E5
:1000700025F07F4545F0110515600549054D0D60DA
:10008000FEE7000018100240001C0140081C01405F
:10009000101C0140C003000080B400AF1846BD46EC
:0400A00080BC704769
:0400000508000000EF
:00000001FF
