:020000040800F2
:10000000FC7F012055000008590000085900000835
:10001000590000085900000859000008590000085C
:10002000590000085900000859000008590000084C
:10003000590000085900000859000008590000083C
:10004000590000085900000859000008590000082C
:100050005900000800F038B980B485B000AF78606E
:100060004FF00003FB6003E0FB6803F10103FB605A
:10007000FA687B689A42F7DB07F11407BD4680BC3B
:10008000704700BF80B400AF4FF48053C4F2020346
:100090004FF48052C4F20202126842F480321A60B5
:1000A00000BF4FF48053C4F202031B6803F4003313
:1000B000002BF6D041F20403C4F2020341F2040221
:1000C000C4F20202126822F0F0021A60BD4680BC3F
:1000D000704700BF80B400AF41F21803C4F20203BE
:1000E00041F21802C4F20202126842F080021A6061
:1000F0004FF4E053C4F201034FF4E052C4F20102A2
:10010000126822F07F421A604FF4E053C4F20103F8
:100110004FF4E052C4F20102126842F088521A60B1
:1001200041F60443C4F2010341F60442C4F2010261
:10013000126822F0FF021A6041F60443C4F2010380
:1001400041F60442C4F20102126842F011021A6040
:10015000BD4680BC704700BF80B500AF41F610437C
:10016000C4F2010341F61042C4F20102126842F4E3
:1001700070721A6048F2A060C0F20100FFF76CFFD5
:1001800041F61043C4F2010341F61042C4F20102E9
:10019000126822F470721A6048F2A060C0F2010086
:1001A000FFF75AFF80BD00BF80B400AF41F21803D3
:1001B000C4F2020341F21802C4F20202126842F4CD
:1001C000804242F005021A604FF00403C4F20103BA
:1001D0004FF00402C4F20102126822F004021A6015
:1001E00040F60403C4F2010340F60402C4F2010223
:1001F000126822F47F621A6040F60403C4F201031D
:1002000040F60402C4F20102126842F496621A60D7
:1002100043F60803C4F201034FF045021A6043F6A7
:100220000C03C4F2010343F60C02C4F2010212688B
:1002300022F4505222F00C021A6043F60C03C4F26E
:10024000010343F60C02C4F20102126842F40052A8
:1002500042F00C021A60BD4680BC704780B483B087
:1002600000AF0346FB7143F60403C4F20103FA79BD
:100270001A6000BF4FF46053C4F201031B6803F01F
:100280008003002BF6D007F10C07BD4680BC7047F9
:1002900080B582B000AF786008E07B681B787A6830
:1002A00002F101027A601846FFF7D8FF7B681B78DD
:1002B000002BF2D107F10807BD4680BD80B400AF26
:1002C000BD4680BC704700BF80B500AFFFF702FF9E
:1002D000FFF76AFF40F2F020C0F60000FFF7D8FFFA
:1002E00040F20000C2F20000FFF7D2FF184680BDC6
:1002F0005541525420697320776F726B696E670D98
:040300000A000000EF
:100304005541525420697320776F726B696E672070
:1003140066726F6D20676C6F62616C0D0A0000007D
:0400000508000000EF
:00000001FF
